{
  "address": "0x5F8457642fF81E1478f3E7cb128D446E1B6a6b62",
  "abi": [
    {
      "inputs": [
        {
          "internalType": "address",
          "name": "exampleExternalContractAddress",
          "type": "address"
        }
      ],
      "stateMutability": "nonpayable",
      "type": "constructor"
    },
    {
      "anonymous": false,
      "inputs": [
        {
          "indexed": false,
          "internalType": "address",
          "name": "staker",
          "type": "address"
        },
        {
          "indexed": false,
          "internalType": "uint256",
          "name": "amount",
          "type": "uint256"
        }
      ],
      "name": "Stake",
      "type": "event"
    },
    {
      "anonymous": false,
      "inputs": [
        {
          "indexed": true,
          "internalType": "address",
          "name": "staker",
          "type": "address"
        },
        {
          "indexed": false,
          "internalType": "uint256",
          "name": "amount",
          "type": "uint256"
        }
      ],
      "name": "Withdraw",
      "type": "event"
    },
    {
      "inputs": [
        {
          "internalType": "address",
          "name": "",
          "type": "address"
        }
      ],
      "name": "balances",
      "outputs": [
        {
          "internalType": "uint256",
          "name": "",
          "type": "uint256"
        }
      ],
      "stateMutability": "view",
      "type": "function"
    },
    {
      "inputs": [],
      "name": "deadline",
      "outputs": [
        {
          "internalType": "uint256",
          "name": "",
          "type": "uint256"
        }
      ],
      "stateMutability": "view",
      "type": "function"
    },
    {
      "inputs": [],
      "name": "exampleExternalContract",
      "outputs": [
        {
          "internalType": "contract ExampleExternalContract",
          "name": "",
          "type": "address"
        }
      ],
      "stateMutability": "view",
      "type": "function"
    },
    {
      "inputs": [],
      "name": "execute",
      "outputs": [],
      "stateMutability": "nonpayable",
      "type": "function"
    },
    {
      "inputs": [],
      "name": "executed",
      "outputs": [
        {
          "internalType": "bool",
          "name": "",
          "type": "bool"
        }
      ],
      "stateMutability": "view",
      "type": "function"
    },
    {
      "inputs": [],
      "name": "openForWithdraw",
      "outputs": [
        {
          "internalType": "bool",
          "name": "",
          "type": "bool"
        }
      ],
      "stateMutability": "view",
      "type": "function"
    },
    {
      "inputs": [],
      "name": "stake",
      "outputs": [],
      "stateMutability": "payable",
      "type": "function"
    },
    {
      "inputs": [],
      "name": "threshold",
      "outputs": [
        {
          "internalType": "uint256",
          "name": "",
          "type": "uint256"
        }
      ],
      "stateMutability": "view",
      "type": "function"
    },
    {
      "inputs": [],
      "name": "timeLeft",
      "outputs": [
        {
          "internalType": "uint256",
          "name": "",
          "type": "uint256"
        }
      ],
      "stateMutability": "view",
      "type": "function"
    },
    {
      "inputs": [],
      "name": "withdraw",
      "outputs": [],
      "stateMutability": "nonpayable",
      "type": "function"
    },
    {
      "stateMutability": "payable",
      "type": "receive"
    }
  ],
  "transactionHash": "0x6f8c6dd939a200b59ea33725cdf482eabf162c2b30ae7779eef93ad5904ef274",
  "args": [
    "0x907Ee7Fe2C4Ab781F0e140a9392a893068a37280"
  ],
  "numDeployments": 3,
  "solcInputHash": "f5e442d84ca4478b19d8fe86306a3872",
  "bytecode": "0x608060405261000f42601e610062565b60025534801561001e57600080fd5b506040516109c23803806109c283398101604081905261003d91610089565b600080546001600160a01b0319166001600160a01b03929092169190911790556100b9565b8082018082111561008357634e487b7160e01b600052601160045260246000fd5b92915050565b60006020828403121561009b57600080fd5b81516001600160a01b03811681146100b257600080fd5b9392505050565b6108fa806100c86000396000f3fe6080604052600436106100955760003560e01c80633ccfd60b116100595780633ccfd60b1461017e57806342cde4e81461019357806361461954146101af5780639876a643146101c45780639f75f227146101de57600080fd5b80631300a6d1146100da57806327e235e31461010257806329dcb0cf1461012f57806331a38c89146101455780633a4b66f11461017457600080fd5b366100d55760405162461bcd60e51b815260206004820152600b60248201526a557365207374616b65282960a81b60448201526064015b60405180910390fd5b600080fd5b3480156100e657600080fd5b506100ef610216565b6040519081526020015b60405180910390f35b34801561010e57600080fd5b506100ef61011d3660046107ca565b60016020526000908152604090205481565b34801561013b57600080fd5b506100ef60025481565b34801561015157600080fd5b5060035461016490610100900460ff1681565b60405190151581526020016100f9565b61017c61023a565b005b34801561018a57600080fd5b5061017c610400565b34801561019f57600080fd5b506100ef670de0b6b3a764000081565b3480156101bb57600080fd5b5061017c610571565b3480156101d057600080fd5b506003546101649060ff1681565b3480156101ea57600080fd5b506000546101fe906001600160a01b031681565b6040516001600160a01b0390911681526020016100f9565b600060025442106102275750600090565b426002546102359190610810565b905090565b60008054906101000a90046001600160a01b03166001600160a01b0316639d9a7fe96040518163ffffffff1660e01b8152600401602060405180830381865afa15801561028b573d6000803e3d6000fd5b505050506040513d601f19601f820116820180604052508101906102af9190610829565b156102f05760405162461bcd60e51b8152602060048201526011602482015270105b1c9958591e4818dbdb5c1b195d1959607a1b60448201526064016100cc565b60025442106103385760405162461bcd60e51b815260206004820152601460248201527314dd185ada5b99c81c195c9a5bd908195b99195960621b60448201526064016100cc565b600034116103785760405162461bcd60e51b815260206004820152600d60248201526c09aeae6e840e6cadcc8408aa89609b1b60448201526064016100cc565b336000908152600160205260408120805434929061039790849061084b565b9091555050604080513381523460208201527febedb8b3c678666e7f36970bc8f57abf6d8fa2e828c0da91ea5b75bf68ed101a910160405180910390a16103fe604051806040016040528060078152602001667374616b65282960c81b8152503334610751565b565b60035460ff166104495760405162461bcd60e51b815260206004820152601460248201527315da5d1a191c985dc81b9bdd08185b1b1bddd95960621b60448201526064016100cc565b336000908152600160205260409020548061049c5760405162461bcd60e51b81526020600482015260136024820152724e6f7468696e6720746f20776974686472617760681b60448201526064016100cc565b336000818152600160205260408082208290555190919083908381818185875af1925050503d80600081146104ed576040519150601f19603f3d011682016040523d82523d6000602084013e6104f2565b606091505b50509050806105385760405162461bcd60e51b815260206004820152601260248201527108cc2d2d8cac840e8de40e6cadcc8408aa8960731b60448201526064016100cc565b60405182815233907f884edad9ce6fa2440d8a54cc123490eb96d2768479d49ff9c7366125a94243649060200160405180910390a25050565b60008054906101000a90046001600160a01b03166001600160a01b0316639d9a7fe96040518163ffffffff1660e01b8152600401602060405180830381865afa1580156105c2573d6000803e3d6000fd5b505050506040513d601f19601f820116820180604052508101906105e69190610829565b156106275760405162461bcd60e51b8152602060048201526011602482015270105b1c9958591e4818dbdb5c1b195d1959607a1b60448201526064016100cc565b6002544210156106705760405162461bcd60e51b8152602060048201526014602482015273111958591b1a5b99481b9bdd081c995858da195960621b60448201526064016100cc565b600354610100900460ff16156106bb5760405162461bcd60e51b815260206004820152601060248201526f105b1c9958591e48195e1958dd5d195960821b60448201526064016100cc565b6003805461ff001916610100179055670de0b6b3a764000047106107425760008054906101000a90046001600160a01b03166001600160a01b031663522e1177476040518263ffffffff1660e01b81526004016000604051808303818588803b15801561072757600080fd5b505af115801561073b573d6000803e3d6000fd5b5050505050565b6003805460ff19166001179055565b6107988383836040516024016107699392919061085e565b60408051601f198184030181529190526020810180516001600160e01b0316630d26b92560e01b17905261079d565b505050565b6107a6816107a9565b50565b60006a636f6e736f6c652e6c6f679050600080835160208501845afa505050565b6000602082840312156107dc57600080fd5b81356001600160a01b03811681146107f357600080fd5b9392505050565b634e487b7160e01b600052601160045260246000fd5b81810381811115610823576108236107fa565b92915050565b60006020828403121561083b57600080fd5b815180151581146107f357600080fd5b80820180821115610823576108236107fa565b606081526000845180606084015260005b8181101561088c576020818801810151608086840101520161086f565b50600060808285018101919091526001600160a01b03959095166020840152604083019390935250601f909101601f1916010191905056fea26469706673582212201086cda2cd0ca331947e2faaa31c88bad10fd90c6546cf32df2009c770e20d2b64736f6c63430008140033",
  "devdoc": {
    "kind": "dev",
    "methods": {},
    "version": 1
  },
  "userdoc": {
    "kind": "user",
    "methods": {},
    "version": 1
  },
  "storageLayout": {
    "storage": [
      {
        "astId": 19,
        "contract": "contracts/Staker.sol:Staker",
        "label": "exampleExternalContract",
        "offset": 0,
        "slot": "0",
        "type": "t_contract(ExampleExternalContract)12"
      },
      {
        "astId": 23,
        "contract": "contracts/Staker.sol:Staker",
        "label": "balances",
        "offset": 0,
        "slot": "1",
        "type": "t_mapping(t_address,t_uint256)"
      },
      {
        "astId": 44,
        "contract": "contracts/Staker.sol:Staker",
        "label": "deadline",
        "offset": 0,
        "slot": "2",
        "type": "t_uint256"
      },
      {
        "astId": 46,
        "contract": "contracts/Staker.sol:Staker",
        "label": "openForWithdraw",
        "offset": 0,
        "slot": "3",
        "type": "t_bool"
      },
      {
        "astId": 48,
        "contract": "contracts/Staker.sol:Staker",
        "label": "executed",
        "offset": 1,
        "slot": "3",
        "type": "t_bool"
      }
    ],
    "types": {
      "t_address": {
        "encoding": "inplace",
        "label": "address",
        "numberOfBytes": "20"
      },
      "t_bool": {
        "encoding": "inplace",
        "label": "bool",
        "numberOfBytes": "1"
      },
      "t_contract(ExampleExternalContract)12": {
        "encoding": "inplace",
        "label": "contract ExampleExternalContract",
        "numberOfBytes": "20"
      },
      "t_mapping(t_address,t_uint256)": {
        "encoding": "mapping",
        "key": "t_address",
        "label": "mapping(address => uint256)",
        "numberOfBytes": "32",
        "value": "t_uint256"
      },
      "t_uint256": {
        "encoding": "inplace",
        "label": "uint256",
        "numberOfBytes": "32"
      }
    }
  }
}