{
  "address": "0x741A99d38322eC112FB6e584fD814C58945De2ED",
  "abi": [
    {
      "inputs": [
        {
          "internalType": "address",
          "name": "tokenAddress",
          "type": "address"
        }
      ],
      "stateMutability": "nonpayable",
      "type": "constructor"
    },
    {
      "inputs": [
        {
          "internalType": "address",
          "name": "owner",
          "type": "address"
        }
      ],
      "name": "OwnableInvalidOwner",
      "type": "error"
    },
    {
      "inputs": [
        {
          "internalType": "address",
          "name": "account",
          "type": "address"
        }
      ],
      "name": "OwnableUnauthorizedAccount",
      "type": "error"
    },
    {
      "anonymous": false,
      "inputs": [
        {
          "indexed": false,
          "internalType": "address",
          "name": "buyer",
          "type": "address"
        },
        {
          "indexed": false,
          "internalType": "uint256",
          "name": "amountOfETH",
          "type": "uint256"
        },
        {
          "indexed": false,
          "internalType": "uint256",
          "name": "amountOfTokens",
          "type": "uint256"
        }
      ],
      "name": "BuyTokens",
      "type": "event"
    },
    {
      "anonymous": false,
      "inputs": [
        {
          "indexed": true,
          "internalType": "address",
          "name": "previousOwner",
          "type": "address"
        },
        {
          "indexed": true,
          "internalType": "address",
          "name": "newOwner",
          "type": "address"
        }
      ],
      "name": "OwnershipTransferred",
      "type": "event"
    },
    {
      "anonymous": false,
      "inputs": [
        {
          "indexed": false,
          "internalType": "address",
          "name": "seller",
          "type": "address"
        },
        {
          "indexed": false,
          "internalType": "uint256",
          "name": "amountOfTokens",
          "type": "uint256"
        },
        {
          "indexed": false,
          "internalType": "uint256",
          "name": "amountOfETH",
          "type": "uint256"
        }
      ],
      "name": "SellTokens",
      "type": "event"
    },
    {
      "anonymous": false,
      "inputs": [
        {
          "indexed": false,
          "internalType": "address",
          "name": "owner",
          "type": "address"
        },
        {
          "indexed": false,
          "internalType": "uint256",
          "name": "amount",
          "type": "uint256"
        }
      ],
      "name": "Withdraw",
      "type": "event"
    },
    {
      "inputs": [],
      "name": "buyTokens",
      "outputs": [],
      "stateMutability": "payable",
      "type": "function"
    },
    {
      "inputs": [],
      "name": "owner",
      "outputs": [
        {
          "internalType": "address",
          "name": "",
          "type": "address"
        }
      ],
      "stateMutability": "view",
      "type": "function"
    },
    {
      "inputs": [],
      "name": "renounceOwnership",
      "outputs": [],
      "stateMutability": "nonpayable",
      "type": "function"
    },
    {
      "inputs": [
        {
          "internalType": "uint256",
          "name": "amount",
          "type": "uint256"
        }
      ],
      "name": "sellTokens",
      "outputs": [],
      "stateMutability": "nonpayable",
      "type": "function"
    },
    {
      "inputs": [],
      "name": "tokensPerEth",
      "outputs": [
        {
          "internalType": "uint256",
          "name": "",
          "type": "uint256"
        }
      ],
      "stateMutability": "view",
      "type": "function"
    },
    {
      "inputs": [
        {
          "internalType": "address",
          "name": "newOwner",
          "type": "address"
        }
      ],
      "name": "transferOwnership",
      "outputs": [],
      "stateMutability": "nonpayable",
      "type": "function"
    },
    {
      "inputs": [],
      "name": "withdraw",
      "outputs": [],
      "stateMutability": "nonpayable",
      "type": "function"
    },
    {
      "inputs": [],
      "name": "yourToken",
      "outputs": [
        {
          "internalType": "contract IERC20",
          "name": "",
          "type": "address"
        }
      ],
      "stateMutability": "view",
      "type": "function"
    }
  ],
  "transactionHash": "0xb801e4599f5cbd43c33560fa24996fb5a6ed620414aa3c6621a5f1d1283cb819",
  "args": [
    "0x818A1B6c9Aa368053065fDC8dFEf57AD2b9C4087"
  ],
  "numDeployments": 1,
  "solcInputHash": "cc5faa5f986680c9da94b7f64e3a89fd",
  "bytecode": "0x608060405234801561001057600080fd5b5060405161096638038061096683398101604081905261002f916100d4565b338061005557604051631e4fbdf760e01b81526000600482015260240160405180910390fd5b61005e81610084565b50600180546001600160a01b0319166001600160a01b0392909216919091179055610104565b600080546001600160a01b038381166001600160a01b0319831681178455604051919092169283917f8be0079c531659141344cd1fd0a4f28419497f9722a3daafe3b4186f6b6457e09190a35050565b6000602082840312156100e657600080fd5b81516001600160a01b03811681146100fd57600080fd5b9392505050565b610853806101136000396000f3fe60806040526004361061007b5760003560e01c80638da5cb5b1161004e5780638da5cb5b14610109578063cbdd69b514610127578063d0febe4c1461014a578063f2fde38b1461015257600080fd5b80633ccfd60b146100805780636c11bcd314610097578063715018a6146100b75780637879e84b146100cc575b600080fd5b34801561008c57600080fd5b50610095610172565b005b3480156100a357600080fd5b506100956100b236600461074c565b6102a3565b3480156100c357600080fd5b506100956104c9565b3480156100d857600080fd5b506001546100ec906001600160a01b031681565b6040516001600160a01b0390911681526020015b60405180910390f35b34801561011557600080fd5b506000546001600160a01b03166100ec565b34801561013357600080fd5b5061013c606481565b604051908152602001610100565b6100956104dd565b34801561015e57600080fd5b5061009561016d366004610765565b610691565b61017a6106cf565b47806101b65760405162461bcd60e51b815260206004820152600660248201526509cde408aa8960d31b60448201526064015b60405180910390fd5b600080546040516001600160a01b039091169083908381818185875af1925050503d8060008114610203576040519150601f19603f3d011682016040523d82523d6000602084013e610208565b606091505b505090508061024b5760405162461bcd60e51b815260206004820152600f60248201526e15da5d1a191c985dc819985a5b1959608a1b60448201526064016101ad565b7f884edad9ce6fa2440d8a54cc123490eb96d2768479d49ff9c7366125a942436461027e6000546001600160a01b031690565b604080516001600160a01b039092168252602082018590520160405180910390a15050565b600081116102e05760405162461bcd60e51b815260206004820152600a6024820152690416d6f756e74203d20360b41b60448201526064016101ad565b60006102ed606483610795565b9050804710156103335760405162461bcd60e51b81526020600482015260116024820152700accadcc8dee440deeae840decc408aa89607b1b60448201526064016101ad565b6001546040516323b872dd60e01b8152336004820152306024820152604481018490526000916001600160a01b0316906323b872dd906064016020604051808303816000875af115801561038b573d6000803e3d6000fd5b505050506040513d601f19601f820116820180604052508101906103af91906107b7565b9050806103f45760405162461bcd60e51b81526020600482015260136024820152721d1c985b9cd9995c919c9bdb4819985a5b1959606a1b60448201526064016101ad565b604051600090339084908381818185875af1925050503d8060008114610436576040519150601f19603f3d011682016040523d82523d6000602084013e61043b565b606091505b50509050806104825760405162461bcd60e51b8152602060048201526013602482015272115512081d1c985b9cd9995c8819985a5b1959606a1b60448201526064016101ad565b60408051338152602081018690529081018490527fa24838acd4af5195a2396965dae5abf54e84e8c19f5698bb966ae64e29994ee59060600160405180910390a150505050565b6104d16106cf565b6104db60006106fc565b565b600034116105185760405162461bcd60e51b81526020600482015260086024820152670a6cadcc8408aa8960c31b60448201526064016101ad565b60006105256064346107d9565b6001546040516370a0823160e01b815230600482015291925082916001600160a01b03909116906370a0823190602401602060405180830381865afa158015610572573d6000803e3d6000fd5b505050506040513d601f19601f820116820180604052508101906105969190610804565b10156105d85760405162461bcd60e51b81526020600482015260116024820152704e6f7420656e6f75676820746f6b656e7360781b60448201526064016101ad565b60015460405163a9059cbb60e01b8152336004820152602481018390526001600160a01b039091169063a9059cbb906044016020604051808303816000875af1158015610629573d6000803e3d6000fd5b505050506040513d601f19601f8201168201806040525081019061064d91906107b7565b50604080513381523460208201529081018290527f0a37b72bb67eee30e09084cf386f8a17817c57f620c3ab95fb25d6a20356ec779060600160405180910390a150565b6106996106cf565b6001600160a01b0381166106c357604051631e4fbdf760e01b8152600060048201526024016101ad565b6106cc816106fc565b50565b6000546001600160a01b031633146104db5760405163118cdaa760e01b81523360048201526024016101ad565b600080546001600160a01b038381166001600160a01b0319831681178455604051919092169283917f8be0079c531659141344cd1fd0a4f28419497f9722a3daafe3b4186f6b6457e09190a35050565b60006020828403121561075e57600080fd5b5035919050565b60006020828403121561077757600080fd5b81356001600160a01b038116811461078e57600080fd5b9392505050565b6000826107b257634e487b7160e01b600052601260045260246000fd5b500490565b6000602082840312156107c957600080fd5b8151801515811461078e57600080fd5b80820281158282048414176107fe57634e487b7160e01b600052601160045260246000fd5b92915050565b60006020828403121561081657600080fd5b505191905056fea26469706673582212204242750e168fc75b4715e41216e019f18921bddcdd5bfa165a8bbe79a96b0b0464736f6c63430008140033",
  "devdoc": {
    "errors": {
      "OwnableInvalidOwner(address)": [
        {
          "details": "The owner is not a valid owner account. (eg. `address(0)`)"
        }
      ],
      "OwnableUnauthorizedAccount(address)": [
        {
          "details": "The caller account is not authorized to perform an operation."
        }
      ]
    },
    "kind": "dev",
    "methods": {
      "owner()": {
        "details": "Returns the address of the current owner."
      },
      "renounceOwnership()": {
        "details": "Leaves the contract without owner. It will not be possible to call `onlyOwner` functions. Can only be called by the current owner. NOTE: Renouncing ownership will leave the contract without an owner, thereby disabling any functionality that is only available to the owner."
      },
      "transferOwnership(address)": {
        "details": "Transfers ownership of the contract to a new account (`newOwner`). Can only be called by the current owner."
      }
    },
    "version": 1
  },
  "userdoc": {
    "kind": "user",
    "methods": {},
    "version": 1
  },
  "storageLayout": {
    "storage": [
      {
        "astId": 8,
        "contract": "contracts/Vendor.sol:Vendor",
        "label": "_owner",
        "offset": 0,
        "slot": "0",
        "type": "t_address"
      },
      {
        "astId": 942,
        "contract": "contracts/Vendor.sol:Vendor",
        "label": "yourToken",
        "offset": 0,
        "slot": "1",
        "type": "t_contract(IERC20)877"
      }
    ],
    "types": {
      "t_address": {
        "encoding": "inplace",
        "label": "address",
        "numberOfBytes": "20"
      },
      "t_contract(IERC20)877": {
        "encoding": "inplace",
        "label": "contract IERC20",
        "numberOfBytes": "20"
      }
    }
  }
}