{
  "address": "0x8CaC63a94c9BBeD17CdA1C08d163691e0b988452",
  "abi": [
    {
      "inputs": [
        {
          "internalType": "address payable",
          "name": "diceGameAddress",
          "type": "address"
        }
      ],
      "stateMutability": "nonpayable",
      "type": "constructor"
    },
    {
      "inputs": [
        {
          "internalType": "address",
          "name": "owner",
          "type": "address"
        }
      ],
      "name": "OwnableInvalidOwner",
      "type": "error"
    },
    {
      "inputs": [
        {
          "internalType": "address",
          "name": "account",
          "type": "address"
        }
      ],
      "name": "OwnableUnauthorizedAccount",
      "type": "error"
    },
    {
      "anonymous": false,
      "inputs": [
        {
          "indexed": true,
          "internalType": "address",
          "name": "previousOwner",
          "type": "address"
        },
        {
          "indexed": true,
          "internalType": "address",
          "name": "newOwner",
          "type": "address"
        }
      ],
      "name": "OwnershipTransferred",
      "type": "event"
    },
    {
      "inputs": [],
      "name": "diceGame",
      "outputs": [
        {
          "internalType": "contract DiceGame",
          "name": "",
          "type": "address"
        }
      ],
      "stateMutability": "view",
      "type": "function"
    },
    {
      "inputs": [],
      "name": "lastPredictedRoll",
      "outputs": [
        {
          "internalType": "uint256",
          "name": "",
          "type": "uint256"
        }
      ],
      "stateMutability": "view",
      "type": "function"
    },
    {
      "inputs": [],
      "name": "owner",
      "outputs": [
        {
          "internalType": "address",
          "name": "",
          "type": "address"
        }
      ],
      "stateMutability": "view",
      "type": "function"
    },
    {
      "inputs": [],
      "name": "renounceOwnership",
      "outputs": [],
      "stateMutability": "nonpayable",
      "type": "function"
    },
    {
      "inputs": [],
      "name": "riggedRoll",
      "outputs": [],
      "stateMutability": "nonpayable",
      "type": "function"
    },
    {
      "inputs": [
        {
          "internalType": "address",
          "name": "newOwner",
          "type": "address"
        }
      ],
      "name": "transferOwnership",
      "outputs": [],
      "stateMutability": "nonpayable",
      "type": "function"
    },
    {
      "inputs": [
        {
          "internalType": "address payable",
          "name": "_addr",
          "type": "address"
        },
        {
          "internalType": "uint256",
          "name": "_amount",
          "type": "uint256"
        }
      ],
      "name": "withdraw",
      "outputs": [],
      "stateMutability": "nonpayable",
      "type": "function"
    },
    {
      "stateMutability": "payable",
      "type": "receive"
    }
  ],
  "transactionHash": "0xcdbc39c087e1055d8eccb8a257578251fdc7dc3691b8900d3c50fd028d788563",
  "args": [
    "0x121f7B5818AA0e3cb53123d0bFc31E1B2103292c"
  ],
  "numDeployments": 1,
  "solcInputHash": "45944199eac6e7bcb1a69a261d748851",
  "bytecode": "0x608060405234801561001057600080fd5b506040516106e93803806106e983398101604081905261002f916100d4565b338061005557604051631e4fbdf760e01b81526000600482015260240160405180910390fd5b61005e81610084565b50600180546001600160a01b0319166001600160a01b0392909216919091179055610104565b600080546001600160a01b038381166001600160a01b0319831681178455604051919092169283917f8be0079c531659141344cd1fd0a4f28419497f9722a3daafe3b4186f6b6457e09190a35050565b6000602082840312156100e657600080fd5b81516001600160a01b03811681146100fd57600080fd5b9392505050565b6105d6806101136000396000f3fe6080604052600436106100745760003560e01c80638da5cb5b1161004e5780638da5cb5b146100d55780638e288fd114610107578063f2fde38b14610127578063f3fef3a31461014757600080fd5b80636b5e97f814610080578063715018a61461009757806388ca3b08146100ac57600080fd5b3661007b57005b600080fd5b34801561008c57600080fd5b50610095610167565b005b3480156100a357600080fd5b50610095610323565b3480156100b857600080fd5b506100c260025481565b6040519081526020015b60405180910390f35b3480156100e157600080fd5b506000546001600160a01b03165b6040516001600160a01b0390911681526020016100cc565b34801561011357600080fd5b506001546100ef906001600160a01b031681565b34801561013357600080fd5b506100956101423660046104ee565b610337565b34801561015357600080fd5b50610095610162366004610512565b610375565b66071afd498d00004710156101c35760405162461bcd60e51b815260206004820152601860248201527f4e6f7420656e6f75676820657468657220746f20726f6c6c000000000000000060448201526064015b60405180910390fd5b60006101d060014361053e565b6001546040805163057ff68760e51b815290519240935060009284926001600160a01b031691829163affed0e0916004808201926020929091908290030181865afa158015610223573d6000803e3d6000fd5b505050506040513d601f19601f820116820180604052508101906102479190610565565b60405160200161027c9392919092835260609190911b6bffffffffffffffffffffffff19166020830152603482015260540190565b60408051601f198184030181529190528051602090910120905060006102a360108361057e565b90506005811161031e57600160009054906101000a90046001600160a01b03166001600160a01b0316637d789dee66071afd498d00006040518263ffffffff1660e01b81526004016000604051808303818588803b15801561030457600080fd5b505af1158015610318573d6000803e3d6000fd5b50505050505b505050565b61032b61045c565b6103356000610489565b565b61033f61045c565b6001600160a01b03811661036957604051631e4fbdf760e01b8152600060048201526024016101ba565b61037281610489565b50565b61037d61045c565b478111156103c45760405162461bcd60e51b8152602060048201526014602482015273496e73756666696369656e742062616c616e636560601b60448201526064016101ba565b6000826001600160a01b03168260405160006040518083038185875af1925050503d8060008114610411576040519150601f19603f3d011682016040523d82523d6000602084013e610416565b606091505b505090508061031e5760405162461bcd60e51b815260206004820152601260248201527108cc2d2d8cac840e8de40e6cadcc8408aa8960731b60448201526064016101ba565b6000546001600160a01b031633146103355760405163118cdaa760e01b81523360048201526024016101ba565b600080546001600160a01b038381166001600160a01b0319831681178455604051919092169283917f8be0079c531659141344cd1fd0a4f28419497f9722a3daafe3b4186f6b6457e09190a35050565b6001600160a01b038116811461037257600080fd5b60006020828403121561050057600080fd5b813561050b816104d9565b9392505050565b6000806040838503121561052557600080fd5b8235610530816104d9565b946020939093013593505050565b8181038181111561055f57634e487b7160e01b600052601160045260246000fd5b92915050565b60006020828403121561057757600080fd5b5051919050565b60008261059b57634e487b7160e01b600052601260045260246000fd5b50069056fea2646970667358221220b29cefe5c0052bb21468de4ced9ab24d5f41a5e4d3d93ffcb91863cbb9a0ee1864736f6c63430008140033",
  "devdoc": {
    "errors": {
      "OwnableInvalidOwner(address)": [
        {
          "details": "The owner is not a valid owner account. (eg. `address(0)`)"
        }
      ],
      "OwnableUnauthorizedAccount(address)": [
        {
          "details": "The caller account is not authorized to perform an operation."
        }
      ]
    },
    "kind": "dev",
    "methods": {
      "owner()": {
        "details": "Returns the address of the current owner."
      },
      "renounceOwnership()": {
        "details": "Leaves the contract without owner. It will not be possible to call `onlyOwner` functions. Can only be called by the current owner. NOTE: Renouncing ownership will leave the contract without an owner, thereby disabling any functionality that is only available to the owner."
      },
      "transferOwnership(address)": {
        "details": "Transfers ownership of the contract to a new account (`newOwner`). Can only be called by the current owner."
      }
    },
    "version": 1
  },
  "userdoc": {
    "kind": "user",
    "methods": {},
    "version": 1
  },
  "storageLayout": {
    "storage": [
      {
        "astId": 8,
        "contract": "contracts/RiggedRoll.sol:RiggedRoll",
        "label": "_owner",
        "offset": 0,
        "slot": "0",
        "type": "t_address"
      },
      {
        "astId": 351,
        "contract": "contracts/RiggedRoll.sol:RiggedRoll",
        "label": "diceGame",
        "offset": 0,
        "slot": "1",
        "type": "t_contract(DiceGame)341"
      },
      {
        "astId": 353,
        "contract": "contracts/RiggedRoll.sol:RiggedRoll",
        "label": "lastPredictedRoll",
        "offset": 0,
        "slot": "2",
        "type": "t_uint256"
      }
    ],
    "types": {
      "t_address": {
        "encoding": "inplace",
        "label": "address",
        "numberOfBytes": "20"
      },
      "t_contract(DiceGame)341": {
        "encoding": "inplace",
        "label": "contract DiceGame",
        "numberOfBytes": "20"
      },
      "t_uint256": {
        "encoding": "inplace",
        "label": "uint256",
        "numberOfBytes": "32"
      }
    }
  }
}